:020000040800F2
:100000000008002035020008312E0008452D0008A8
:100010002D2E0008E51A0008452E000800000000FB
:10002000000000000000000000000000392E000861
:10003000E91A000800000000352E00083D2E0008D7
:100040004F0200084F0200084F0200084F0200084C
:100050004F0200084F0200084F0200084F0200083C
:100060004F0200084F0200084F0200084F0200082C
:100070004F0200084F0200084F0200084F0200081C
:100080004F0200084F0200084F0200084F0200080C
:100090004F0200084F0200084F0200084F020008FC
:1000A0004F0200084F0200084F0200084F020008EC
:1000B0004F0200084F0200084F0200084F020008DC
:1000C0004F0200084F0200084F0200084F020008CC
:1000D0004F0200084F0200084F0200084F020008BC
:1000E0004F0200084F0200084F02000800F002F81B
:1000F00000F090F80AA090E8000C82448344AAF132
:100100000107DA4501D100F085F8AFF2090EBAE82F
:100110000F0013F0010F18BFFB1A43F0010318473B
:10012000A0390000C0390000103A24BF78C878C157
:10013000FAD8520724BF30C830C144BF04680C60ED
:10014000704700000023002400250026103A28BF35
:1001500078C1FBD8520728BF30C148BF0B60704739
:100160006E2900F06181702900F0A382662903F0F6
:10017000B782652903F0B482672903F0B18261294F
:1001800003F0B08203681B0A28BF41F0800169298F
:1001900000F00E81642900F00B81752900F00881C0
:1001A0006F2900F03182782900F06F82E92900F090
:1001B000CB81E42900F0C881F52900F0C581EF2941
:1001C00000F02E82F82900F06E820368DB0928BF58
:1001D00041F08001632900F06F87732900F0748774
:1001E000E32900F07F87F32900F08487002070471F
:1001F0001FB500F0D5FF04000020002103F05AFADB
:10020000401C60600020002103F03EFAE0601FBD4A
:1002100010B510BD00F096FF1146FFF7E9FF02F0A0
:1002200013FE01F073F803B4FFF7F2FF03BC01F013
:10023000BBF800000948804709480047FEE7FEE791
:10024000FEE7FEE7FEE7FEE7FEE7FEE7FEE7FEE786
:1002500004480549054A064B70470000412E000836
:10026000ED0000080002002000080020000400202B
:10027000000400201CB50C46064B7B4469460090E8
:10028000204600F0EAF804460020694600F0F8F83D
:1002900020461CBD030200004FF0000200B51346CB
:1002A00094469646203922BFA0E80C50A0E80C5096
:1002B000B1F12001BFF4F7AF090728BFA0E80C5047
:1002C00048BF0CC05DF804EB890028BF40F8042B40
:1002D00008BF704748BF20F8022B11F0804F18BFAD
:1002E00000F8012B704770477047704770B504469F
:1002F00085690068C10601D5302600E02026C007C8
:1003000007D070BDD4E9012130469047206A401CD7
:1003100020626D1EF6D570BD70B504468569007803
:10032000C00707D170BDD4E9012120209047206A81
:10033000401C20626D1EF6D570BD09684A0501D5C6
:1003400040B27047C905FCD500B2704709684A053C
:1003500001D5C0B27047C905FCD580B2704770B5F1
:100360000C460546012A05D02878800600D5EA69A2
:10037000002302E0012305E05B1C934202D2E05C13
:100380000028F9D1A869E618C01AA861286A18449B
:1003900028622846FFF7AAFF04E0D5E9012114F8F6
:1003A000010B9047B442F8D32846FFF7B5FF70BD64
:1003B0002DE9F0410646002410687529314616A53E
:1003C00010D0FFF7BAFF002802DA404213A507E079
:1003D00031688A0701D512A502E0490704D511A5A5
:1003E000012401E0FFF7B2FF00210A2206F12407F1
:1003F00009E0B0FBF2FCB0FBF2F302FB1C00303072
:1004000078541846491C0028F3D123462A46304622
:10041000BDE8F04100F061BA000000002D000000CE
:100420002B0000002000000011680268006A5305DC
:1004300001D508700AE0D30501D5088006E013064F
:1004400003D5C217C1E9000200E00860012070472F
:1004500001694A1C02610878704700B58FB0CDE988
:1004600001310021059105497944CDE90310114678
:10047000684600F029F90FB000BD0000E5FFFFFF5E
:100480000A6802F8010B0A60704700002DE9FF5F5F
:1004900015468A460446DFF8AC80F8440027D8E9C0
:1004A00000103E46CDE9001010E03AF816106A46FA
:1004B00002A800F023FE411C07D02178890603D54D
:1004C000E269391891420DD80744761C20788006DD
:1004D00002D5E069B84205DDAE42E6DB3AF8160027
:1004E0000028E2D1A069C01BA0612046FFF7FEFEF4
:1004F000D8E90010CDE90010002017E03AF81810F4
:100500006A4602A800F0FAFDB0F1FF3F81460BD029
:1005100000250DF1080B05E0D4E901211BF80500C9
:1005200090476D1C4D45F7D308F10100B04280465D
:10053000E4DB206A384420622046FFF7EDFEBDE888
:10054000FF9F00004A3200002DE9F0418046D21D95
:1005500022F007020025D2E90002F52915A614D0E1
:10056000011E72F1000106DA0023D0EB030063EBF9
:10057000020211A608E0D8F800108B0701D50FA6DB
:1005800002E0490701D50EA601251146002408F115
:10059000240704E000F05CF930323A55641C50EA5C
:1005A0000102F7D12B46324621464046BDE8F041D4
:1005B00000F093B9000000002D0000002B000000A7
:1005C0002000000030B4002100F1240408E002F013
:1005D0000705D208303542EA4372DB086554491CEE
:1005E00052EA0305F3D10468002310A2250708D5B9
:1005F00004F020040C4304D0C46901230CA2641E3F
:10060000C46130BC00F069B910B5044621461068D9
:10061000FFF79CFE02462046BDE810400023D1E7CC
:10062000D21D22F00701D1E90023CBE70000000032
:1006300030000000F0B40D460188090502D5214CB8
:100640007C4402E01F4C7C440E34002100F124065F
:1006500008E002F00F071209E75D42EA03721B0986
:100660007754491C52EA0307F3D10278002312079A
:1006700004D5702D06D009B1022311342246F0BCF6
:1006800000F02BB901231034F8E770B504460D468D
:1006900021461068FFF75AFE024629462046BDE86B
:1006A00070400023C6E7D21D22F00703D3E90023E0
:1006B000C0E70368126843F0200303600823C361A6
:1006C0000023B7E7AC3000002DE9F05F894604460F
:1006D0004FF0000ADFF874B1FB44C0F820A02046B8
:1006E000E1688847002874D0252806D0D4E9012184
:1006F0009047206A401C2062F1E700265F462046B2
:10070000E16888472028054607DB312D05D2781996
:1007100010F8200C08B10643F1E7B00701D526F028
:100720000406C4F81CA00027C4F818A02A2D09D07C
:10073000284602F0A1FF38B304EB8708303DC8F823
:10074000185019E059F8041B204604EB8702916108
:10075000E1688847012F054618D1E069002820DAB2
:1007600026F020061DE0D8F8180000EB800005EB0D
:1007700040003038C8F818002046E1688847054630
:1007800002F07AFF0028EED1012F0AD02E2D08D1D9
:100790002046E16888477F1C0546022F46F0200668
:1007A000C4DBA069002803DA404246F00106A061DC
:1007B000F00701D026F010066C2D0BD0682D09D063
:1007C0004C2D39D06A2D35D0742D35D07A2D33D0BB
:1007D00016E038E0E1682F4620468847B8420546D3
:1007E00009D16C2F26D04FF48060E1680643204683
:1007F0008847054604E06C2F1AD04FF480700643FA
:100800000DB3A5F14100192802D8203546F4006641
:100810004A462946204626604E46FFF7A1FC80B195
:1008200001280BD0F61D26F0070000F1080956E755
:100830004020E4E78020D8E70020D6E706F104094D
:100840004DE7284652E7206ABDE8F09F3C300000A3
:1008500030B5B0F10A0271F100034FEA900E4EEA92
:10086000817EB0EB0E0061EB91014FEA101E4EEA63
:10087000017E10EB0E0041EB11114FEA102E4EEAF3
:10088000016E10EB0E0041EB11214FEA104E4EEAC3
:10089000014E10EB0E0041EB1141401841F10001F7
:1008A0004FEAD00040EA41704FEAD1014FEA81049B
:1008B00044EA907410EB800544EB01046D1944EB9D
:1008C0000404521BA3414FF0000348BF0A3200D575
:1008D00030BD401C41F1000130BD2DE9F0470D460F
:1008E00099469246044600F124080168880604D51A
:1008F000E06921F01001216000E00120A84201DD43
:10090000471B00E00027A1697A1902EB0900081AC9
:10091000A0612078C00602D42046FFF7E7FC00263D
:1009200008E0D4E901211AF806009047206A401C2B
:10093000761C20624E45F4DB2078C0060AD520469E
:10094000FFF7D4FC06E0D4E9012130209047206A6B
:10095000401C2062381EA7F10107F4DC07E0D4E94F
:10096000012118F805009047206A401C2062281ECB
:10097000A5F10105F3DC2046FFF7CEFC2078000648
:1009800002D50220BDE8F0870120FBE72DE9FF4FEB
:100990000C461E464FF0FF378BB0D2E90001DDF860
:1009A00060800A908A46C1F30A5505B93D46002188
:1009B00008464FF00000BAF1000F00F4400005DADD
:1009C00000EB80004FF4400101EA50004FEA9059DB
:1009D000B9F1010F00DDB9460A9850EA4A000ED07D
:1009E00044F61050A5F2FF3545432F14B8F1000F1F
:1009F0001ED07542291E1EDDC9F100021CE0B8F1AF
:100A0000010F4FF0000001D0302103E0F24305E078
:100A10002154401CB042FBDB30460022002121540F
:100A20000B99C1F80880C1E900200FB0BDE8F08F34
:100A3000BD1B6D1CDEE74A4600DA694206A800F0DD
:100A4000F3FB06AB93E8070003AB83E807005046CF
:100A50000A9902F034FA8DE80700A0F500501F381B
:100A600000900398002D0ADD42F21F014A46084417
:100A7000002303A90390684602F09EFC09E0A0F55C
:100A800000504A461F38002303A90390684602F02D
:100A9000A8FC8DE807000004000C03D04FF0FF30E5
:100AA000410800E01046B8F1000F03D00022009288
:100AB00015461EE0751E05D4FFF7CAFE303262559A
:100AC0006D1EF9D5B3460122084302D000227F1CD7
:100AD00004E02078302801D100227F1E002A0997E7
:100AE00084D01DE0112D07DAFFF7B2FE30326255D7
:100AF0006D1C50EA0102F5D1084302D00098C8B13C
:100B00000EE00021681E05E0235C625C6354225401
:100B1000401E491C8142F7DBAB46A81B401E0990D2
:100B2000002004F80B000B98099AC0F80880C0E96F
:100B3000002B7AE711264FF0000857E72DE9F04F18
:100B400088460446D21D22F0070191B0D1E9000188
:100B5000CDE90A0102F07CFD02460B98C00F01D0DE
:100B60002D2007E02068810701D52B2002E02021FD
:100B700001EAC000032A099001D0072A05DB0346D9
:100B80004146204600F010FB0BE12078800601D59D
:100B9000E06900E00620B8F1650F814606D0B8F1A3
:100BA000660F18D0B8F1670F70D131E00020B9F1AD
:100BB000110F009001DB112301E009F101030AAAE2
:100BC00001A90CA8FFF7E2FEDDE90C70002609F18F
:100BD0000105834647E001204B4600904FF0004757
:100BE0000AAA01A90CA8FFF7D1FEDDE90DB00C9906
:100BF0005D46002610B909F101000D18B9EB05009A
:100C000003D4C0F1FF3609F10105A5EB09002BE083
:100C1000B9F1010F01DA4FF001090020B9F1110F0C
:100C20000090484601DD112300E003460AAA01A90D
:100C30000CA8FFF7ABFEDDE90C704D46002683469D
:100C4000207800070AD4AB4500DA5D4601A8012DE3
:100C500004DD411911F8011C302907D04F4502DA93
:100C600017F1040F04DA012082460FE06D1EEEE753
:100C7000002F02DCED1B3E4403E0781CA84200DD9F
:100C80007D1CB81B00F1010A4FF0004720780007D7
:100C900003D4AA4501DB4FF0FF3A0021B7F1004F22
:100CA0000DF143088DF8431024D002202B23002F90
:100CB00001DA7F422D230A21021EA0F1010000DC8F
:100CC0005FB197FBF1FC97FBF1F201FB1C7C17462F
:100CD0000CF1300C08F801CDEEE7A8F1010003702B
:100CE0002188090501D5452100E06521A0F1010811
:100CF00000F8011C09980FA9A1EB0807FF1D00B11E
:100D00000120411901EBEA70A1693844081A401E1C
:100D1000A0612078C00602D42046FFF7E7FA0998C0
:100D200028B1D4E901219047206A401C2062207834
:100D3000C00622D52046FFF7D9FA1EE0002E04DBBC
:100D4000B34502DD01A8805D00E03020D4E9012137
:100D50009047206A401C2062761CAAF101005FEADD
:100D6000000A0AD100F01CFAC0680168405CD4E9AE
:100D700001219047206A401C2062281EA5F1010530
:100D8000DCDC07E0D4E9012118F8010B9047206A68
:100D9000401C2062381EA7F10107F3DC2046FFF754
:100DA000BBFA032011B041E62DE9F04F04460D4691
:100DB000D21D22F0070089B0D0E900974846394695
:100DC00002F046FC0246F80F01D02D2307E0206810
:100DD000810701D52B2302E0202101EAC0038DF811
:100DE00020300BB1012000E00020032A824601D010
:100DF000072A04DB2946204600F0D6F93FE1207897
:100E0000800601D40D2500E0E569C7F30A560D2DD3
:100E100049DA00214FEA175B08464FF00000002F27
:100E200000F4400007DA00EB80004FF4400100EBD3
:100E3000D07001EA60008115012901DD4FF0FF311A
:100E400000224FEA850CBCF1180F06D31346ACF113
:100E500018004FF08052C24003E04FF4801323FA91
:100E60000CF30CF10C0CBCF1200F04D3ACF1200CF2
:100E700009FA0CF001E007FA0CF000294FF00048E5
:100E800001DD18B90FE00ED140450CD319EB020972
:100E90005F4121B9404502D19F4329EA0209BBEBDA
:100EA000175F00D0761C2088000502D57B48784467
:100EB00002E07A487844193808AA302302F80A3048
:100EC000037C0AF10101002E0AF1020A53546A461A
:100ED00002DC4FF0300101E04FF031014FF001082A
:100EE0008DF8001002D0A6F2FF3603E059EA470160
:100EF00000D06B4E002D02DC2178090704D54FF09D
:100F000002082E218DF80110C44600210BE0C7F322
:100F100003433F01C35C491C6D1E02F808300529DC
:100F200008F1010801DA002DF1DC00210CE000EBF2
:100F30001973491C1B786D1E082902F808304FEA06
:100F4000091908F1010801DA002DF0DC21688B068F
:100F500002D516E0A8F10108E04505DD02EB080323
:100F600013F8013C302BF5D0B8F1000F09DD02EB8E
:100F7000080313F8013C2E2B03D1090701D4A8F173
:100F80000108002D05DD3E2102F808106D1E08F154
:100F90000108407C002E02F8080008F1010804DA7C
:100FA0002D20764202F8080002E02B2002F808000B
:100FB0000A214FF47A70864208F101080BDB96FB98
:100FC000F0F3303302F8083096FBF0F308F1010833
:100FD00000FB136601E0642E0CDB642096FBF0F34B
:100FE000303302F8083096FBF0F308F1010800FBFB
:100FF000136601E00A2E06DB96FBF1F0303002F8B2
:10100000080008F1010896FBF1F001FB1060303098
:1010100002F80800A16908F1010808EB050202EBDB
:101020000A00081AA0612078C00602D42046FFF703
:101030005DF9216A08AE01EB0A00206204E0D4E900
:10104000012116F8010B9047BAF1010AF7D2207876
:10105000C00602D52046FFF749F96E4609E016F8AA
:10106000010B3E280FD0D4E901219047206A401C93
:101070002062B8F10108F2D22046FFF74DF909B01D
:101080000320BDE8F08F206A2844206203E0D4E901
:101090000121302090476D1EEBD3F8E78A2800002D
:1010A00002FCFFFF10B5436913B1AFF3008001E00C
:1010B000FFF755F9012010BD127800F124010A70E4
:1010C00000224A700122EDE711684FF0FF32E9E794
:1010D00010B5436913B1AFF3008001E0FFF7D6F913
:1010E000012010BD128800F1240182840022C284F4
:1010F0000122EDE711684FF0FF32E9E72DE9F041F9
:1011000016460C46054600F043F8036893F80101C3
:10111000012807D0FF2C12D8185D80B101202C7057
:10112000BDE8F081D3F807013246214603F20713E8
:10113000C7182846BC46BDE8F041002360474FF081
:10114000FF30EDE7754600F0EBF8AE460500694666
:10115000534620F00700854618B020B5FFF778F811
:10116000BDE820404FF000064FF000074FF00008A8
:101170004FF0000BAC46ACE8C009ACE8C009ACE8E5
:10118000C009ACE8C00921F007018D467047000096
:1011900010B500F005F8001D10BD00BF19250000B6
:1011A00000487047380000202DE9F0411F460446F2
:1011B00003260168072A01F4006004DB08B116A5C4
:1011C00005E016A503E008B115A500E015A521F07E
:1011D00010002060A069C01EA0610FB1401EA06178
:1011E0002046FFF783F84FB1D4E9012138469047F4
:1011F000206A401C2062C01C206206E0206AFAE7D8
:10120000D4E9012115F8010B9047761EF8D220464B
:10121000FFF782F8BDE8F0814E414E006E616E002E
:10122000494E4600696E66002DE9F0478146164634
:101230008AB0354878440DC88DE80D0032487844AE
:10124000801C03AC0DC884E80D0041F69B300844B7
:10125000372190FBF1F290FBF1F5A5F1800501FB40
:1012600012041B3C02D56442012000E00020DFF89C
:1012700098A080460027FA44AAF1BE0A0EE0E007D3
:101280000AD03246684607EB470101230AEB810189
:1012900002F0A7F88DE8070064107F1C002CEED147
:1012A000194F7F44AE3F19E0E80715D007EB041053
:1012B0000DF1180A90E80E008AE80E00C068F042AE
:1012C00001D1981908903246012306A903A802F01B
:1012D00088F803AB83E807006D10641C002DE3D190
:1012E0004FF0010332466946B8F1000F03A802D05F
:1012F00002F062F801E002F074F8C9E90001C9F8EF
:1013000008200AB0BDE8F0879425000010B5044617
:10131000AFF300802046BDE81040FEF784BF000018
:1013200000487047180000204FF0013C50F8042B93
:1013300051F8043B9A4221D1A2EB0C03934313EAE8
:10134000CC1317D150F8042B51F8043B9A4215D115
:10135000A2EB0C03934313EACC130BD150F8042BEC
:1013600051F8043B9A4209D1A2EB0C03934313EAD0
:10137000CC13DBD04FF00000704700BFD01A01BA89
:10138000B1FA81F101F0180122FA01F0CB40DBB291
:10139000C0B2C01AC1F120012CFA01F3D11A914355
:1013A00011EAC311E6D1704701491820ABBEFEE730
:1013B000260002007047000083B0B0B59BB0044621
:1013C0001FA802AD0EC028466421FEF765FF1FAAC4
:1013D000284621460192FEF74DFF40F29010C2F2DE
:1013E0000000294664224FF0FF3301F06FFB1BB071
:1013F000BDE8B04003B070472DE9F04F89B040F22E
:101400007804C2F200042046C821FEF745FF40F2EE
:101410004810C2F20000214601224FF0FF3301F0D4
:101420007DFA28B10024204609B0BDE8F08F00BF46
:10143000227840F24810611CC2F200004FF0FF33E6
:1014400001F06CFA60781038112800F25981DFE859
:1014500010F013003B005D007D009D00FF004B017C
:101460004F015301550157015701570157015701CA
:1014700057015D015F0100BF40F26410C0F202003D
:10148000089043F6B100C0F60000FFF795FF207802
:101490000130C0B2211851F8048C071F00F08C8174
:1014A00040F240190021C2F200096E46002500BF3B
:1014B000605C314600904846012200F08DFB01350A
:1014C000E9B28F42F4D878E143F64B20C0F6000031
:1014D000FFF772FF20780130C0B2211851F8048C58
:1014E000071F00F09F8140F240190021C2F200095D
:1014F0006E460025605C314600904846012200F0AF
:101500006BFB0135E9B28F42F4D88CE143F6202021
:10151000C0F60000FFF750FF2078011951F8038C46
:10152000C71E00F0FD8040F240190021C2F2000900
:101530006E460025605C314600904846012200F06E
:101540004BFB0135E9B28F42F4D8EAE043F6D510FF
:10155000C0F60000FFF730FF2078011951F8038C26
:10156000C71E00F09F8140F240190021C2F200091D
:101570006E460025605C314600904846012200F02E
:101580002BFB0135E9B28F42F4D88CE143F64B20B6
:101590000025C0F600008DF82050FFF70DFF2078E1
:1015A0000130C0B2211851F8048C061F12D040F24D
:1015B00040190021C2F20009EA460027605C51464A
:1015C00000904846012200F007FB0137F9B28E4235
:1015D000F4D8054640F24010C2F2000000684545CC
:1015E000816841F00101816040F0948043F6411030
:1015F000C0F60000FFF7E0FE40F2CD10ADF80000AD
:1016000040F24810C2F20000694602224FF0FF3358
:1016100001F05CFAD4F8024004F16040B0F5A04F4C
:1016200040F2848104F17840B0F5803F40F27E8141
:1016300043F67800C0F60000FFF7BEFE00208DF8EC
:10164000200040F24810C2F2000008A964E100BF87
:1016500043F6A5100025C0F600008DF81F50FFF7D7
:10166000ABFE207840F24019011951F8038CC61ED8
:10167000C2F2000912D040F2401A0021C2F2000A60
:10168000EB460027605C594600905046012200F06E
:10169000A3FA0137F9B28E42F4D80546D9F8000012
:1016A0004545816841F00101816040F0278143F6A2
:1016B0004110C0F60000FFF77FFE40F2CD10ADF8FC
:1016C000000040F24810C2F20000694602224FF0CA
:1016D000FF3301F0FBF9A578E4780020402C089056
:1016E00040F24681012087E10FF2E0305DE000BF6B
:1016F0000FF2C03059E000BFE9A056E0E0A054E08E
:1017000043F69220C0F600004FE000BFD7A04CE0A7
:10171000CFA04AE043F65C10C0F60000F2E000BF44
:10172000002040F24011C2F20001096840458A6879
:1017300042F001028A6021D143F62610C0F6000073
:10174000FFF73AFE42F20000CEF20400006840F2D9
:1017500048146FF31F30ADF8200040F2CD20C2F2E4
:101760000004ADF800006946204602224FF0FF3326
:1017700001F0ACF908A9204602220EE043F60B1056
:10178000C0F60000FFF718FEAB208DF8000040F215
:101790004810C2F20000694601224FF0FF3301F009
:1017A00095F943F69E00C0F60000FFF705FE002401
:1017B000204609B0BDE8F08F002040F24011C2F28F
:1017C0000001096840458A6842F001028A6019D127
:1017D00043F64110C0F60000FFF7EEFD40F248145A
:1017E00040F2CD40C2F20004ADF800006946204648
:1017F00002224FF0FF3301F069F908A920460422C4
:101800008BE000BF43F65C10C0F60000FFF7D4FD8C
:10181000AB208DF8000040F24810C2F2000069468B
:1018200001227AE0002040F24011C2F20001096872
:1018300040458A6842F001028A601BD143F641109C
:10184000C0F60000FFF7B8FD40F2481440F6CD4066
:10185000C2F20004ADF800006946204602224FF0B3
:10186000FF3301F033F940F20801C2F200012046D3
:101870000C2252E043F65C10C0F60000FFF79CFD1E
:10188000AB208DF8000040F24810C2F2000069461B
:1018900001224FF0FF33012401F018F9204609B06E
:1018A000BDE8F08F002040F24011C2F2000109684B
:1018B00040458A6842F001028A601FD143F6261033
:1018C000C0F60000FFF778FD40F2481440F2CD105A
:1018D000C2F20004ADF800006946204602224FF033
:1018E000FF3301F0F3F8684600F05EFA9DF810004F
:1018F00069468DF8000020460EE000BF43F60B104D
:10190000C0F60000FFF758FDAB208DF8000040F254
:101910004810C2F20000694601224FF0FF3301F087
:10192000D5F80124204609B0BDE8F08F01208DF8DC
:10193000200043F6E900C0F60000FFF73DFD40F24D
:101940004810C2F2000008A901224FF0FF3301F055
:10195000BDF8013443F6D900C0F600002146FFF778
:101960002BFDA0470124204609B0BDE8F08F00BF41
:10197000681CC0B2402815D8FF2D1BD043F6761046
:10198000C0F60000FFF718FDC5F14000C0B2A0424C
:1019900038BF044600200090A80200F10060CDE9A5
:1019A00002040FE043F65400C0F60000FFF704FD08
:1019B00021E000BF0220009043F60120C0F60000A5
:1019C000FFF7FAFC0120019000F00EFA684608A922
:1019D00000F072F9089843F60E01441C43F63000FB
:1019E000C0F60000C0F6000108BF0846FFF7E4FC9F
:1019F00000F0F0F9C4B102208DF81F0040F2481049
:101A0000C2F200000DF11F0101224FF0FF3301F07F
:101A10005DF843F67820C0F60000FFF7CDFC012406
:101A2000204609B0BDE8F08F03208DF81F0040F27A
:101A30004810C2F200000DF11F0101224FF0FF33E8
:101A400001F044F843F69110C0F60000E5E700BF4E
:101A500043424C5F4348414E47455F524F505F4CB5
:101A60006576656C5F434D44200D0A0043424C5F30
:101A70004F54505F524541445F434D44200D0A008E
:101A800043424C5F524541445F534543544F525F7C
:101A90005354415455535F434D44200D0A000000F8
:101AA00043424C5F4D454D5F524541445F434D4479
:101AB000200D0A0043424C5F45445F575F50524F30
:101AC000544543545F434D44200D0A0043424C5F4C
:101AD0004D454D5F57524954455F434D44200D0AD3
:101AE00000000000FEE7000070470000EFF31080E8
:101AF00072B600BFFEE7000070B542F20C06044665
:101B0000C4F2020600F096FA3168C90718D13068AD
:101B1000800644BF202030603068C00607D430699A
:101B2000C00704D1306840075CBF002070BD30683A
:101B3000C00623D40020316849072BD434E000BF0D
:101B4000002C47D00546601C0ED13068C007DED09F
:101B50003068C0071CBF30685FEAC070D7D03068FB
:101B6000C007F2D1D3E700BF00F064FA401BA042E7
:101B700030D83068C007F7D1C9E700BF40F2D810AD
:101B8000C2F20000C16941F00201C1611020316858
:101B9000490709D540F2D811C2F20001CA6940F0E4
:101BA000040042F00102CA613169C90702D1306004
:101BB000012070BD40F2D811C2F20001CA6942F0A2
:101BC0000402CA61316921F00101316130600120F4
:101BD00070BD00BF032070BDB0B5864602208EF8F0
:101BE0000500DEF8000042B1531E032B02F0030C87
:101BF00008D20022BCF1000F1AD1006801218EF832
:101C00000510B0BD22F00302A1F1100354420022DE
:101C100053F8105F043A05605D68944205609D6862
:101C20000560DD680560F3D15242BCF1000FE4D0DD
:101C300051F82230BCF1010F0360DED001EB8201CC
:101C40004A68BCF1020F02601CBF8968016000682D
:101C500001218EF80510B0BD002804BF0120704797
:101C600010B50446407918B101206071002010BD04
:101C700000202071204600F005F80120607100204E
:101C800010BD000081B0006843F20001C4F20201FF
:101C9000884201D001B0704741F21400C4F2020042
:101CA000016841F040010160006800F040000090D0
:101CB000009801B0704700002DE9F04381B040F278
:101CC000D816C2F20006327E012A03D1022001B0EA
:101CD000BDE8F083054601202C6830764CF2503088
:101CE0008846FFF709FF022C1CD100284ED10020A6
:101CF00042F21004F061C4F20204206840F00400D3
:101D00002060206840F0400020604CF25030FFF727
:101D1000F3FE216821F0040121600021317601B039
:101D2000BDE8F08390BB4FF0FF30C8F80000D5E964
:101D3000027007EB8020874228D242F21004C4F2DE
:101D400002044FF0000900BFC6F81C90206840F064
:101D5000020020606760206840F0400020604CF284
:101D60005030FFF7C9FE216821F00201216098B9C7
:101D7000D5E9020107F5806700EB81208742E3D3B4
:101D800000200021317601B0BDE8F0830120002160
:101D9000317601B0BDE8F083C8F8007000213176DB
:101DA00001B0BDE8F08300000721016042F21C0190
:101DB000C4F202014A6882600A6892074FF000028A
:101DC00058BF6FF05A0202740968C1F3820141746E
:101DD0007047000042F21001C4F20201086840F0AE
:101DE000800200200A60704742F20400C4F2020040
:101DF000C16809065CBF0020704740F22311C4F29D
:101E00006751016048F6AB11CCF6EF510160C06834
:101E1000C0B2C009704700002DE9F04F82B00E68D3
:101E2000002E00F0038141F20042C4F201020423BB
:101E300040F2004E904208BF03234FF6FF7CC4F2ED
:101E4000010E009300240123C1F2100C4FF0000A90
:101E50004FF0000949E000BF012704F00C030F22F6
:101E60009A402BEA020207FA03F34FEA9A051A4353
:101E700046F82520D1F804B040F20C455FEACB22A9
:101E8000DEF8082054BF22EA080242EA0802C4F23F
:101E90000105CEF808202A685FEA8B2354BF22EAA6
:101EA000080242EA08022A605FEA8B33DEF8042067
:101EB00054BF22EA080242EA08025FEACB33CEF8B6
:101EC0000420DEF800204FF0010354BF22EA08028C
:101ED00042EA0802CEF800200E680AF1010A36FA3A
:101EE0000AF204F1040400F0A18003FA0AF816EAE9
:101EF000080FF1D04E68664512DC122E56D8DFE886
:101F000006F0350B454955555555555555555555BB
:101F10005555554D510000BFD1F80C9046E000BF1B
:101F20004FF6FF72C1F2210296420FDC0022C1F28D
:101F3000110296421AD00022C1F21202964215D026
:101F40000022C1F22102964210D02FE00022C1F2FD
:101F5000220296420AD00022C1F23102964205D0F6
:101F60000022C1F23202964220D100BF8A684AB1F3
:101F7000012A14BFC0F81480C0F810804FF008097F
:101F800014E000BF4FF0040910E000BFCA6802F17E
:101F900008090BE04FF0000908E000BFCA6802F131
:101FA000040903E0CA6802F10C0900BF2246064694
:101FB000BAF1080F24BF203A043637680F25954040
:101FC00027EA050509FA02F22A433260CA79D206E5
:101FD0007FF582AF41F21803C4F202031A68AEF52E
:101FE0007E7642F001021A601A6802F00102019244
:101FF000019A2AF0030256F802B040F60002C4F239
:102000000102904210D040F60042C4F20102904218
:102010003FF422AF41F20002C4F20102009F90425D
:1020200008BF022719E700BF002716E702B0BDE886
:10203000F08F000040F2F810C2F200000068704714
:1020400040F2000040F2F811C2F20000C2F20001BA
:1020500000780A68104408607047000080B542F2BA
:102060000000C4F20200016841F010010160032089
:1020700000F072F80F2000F005F800F027F80020BB
:1020800080BD000070B540F20006C2F2000640F2CA
:1020900014013278C2F200014FF47A730968B3FB7D
:1020A000F2F20446B1FBF2F1084600F047FB0F2CB8
:1020B0004FF0010508D838B94FF0FF302146002213
:1020C000002500F01DF87460284670BD82B041F212
:1020D0001800C4F20200016841F0010101600168CA
:1020E00001F0010101910199416841F08051416085
:1020F000406800F080500090009802B070470000E7
:1021000010B54EF60C5CCEF2000CDCF80030C3F3D8
:10211000022E8EF00704042C28BF0424BEF1030312
:102120004FF0FF3E0EFA04F438BF0023A14399405C
:102130000EFA03F39A43114300F00F0200F16043DB
:102140000901043A03F564436244002848BF02F1E0
:102150000C03197010BD00004EF60C51CEF20001B8
:102160000A684FF6FF031A4060F30A2242F08060CB
:1021700040F0FD70086070472DE9F04381B0002801
:1021800000F0858042F20008C4F202080446D8F844
:1021900000000D4600F0070088420CD2D8F800007D
:1021A00020F007002843C8F80000D8F8000000F02D
:1021B0000700A8426BD1206841F204098107C4F2EC
:1021C000020917D5410705D5D9F8001041F4E0619F
:1021D000C9F80010010705D5D9F8001041F4605185
:1021E000C9F80010D9F80010A26821F0F0011143DD
:1021F000C9F80010C00741D1D8F8000000F007006E
:10220000A8420CD9D8F8000020F007002843C8F8ED
:102210000000D8F8000000F00700A84237D120687D
:10222000410707D5D9F80010E26821F4E0611143B5
:10223000C9F80010000708D5D9F80000216920F47A
:10224000605040EAC100C9F80000D9F8002002F04F
:102250000C00082841F20020C0F27A0050D143F26D
:10226000FE73C2F38341C0F60003595CD2033BD432
:1022700040F60010C0F23D00484341E0606802288B
:102280000AD001282AD159F8041C890308D4012056
:1022900001B0BDE8F08300BF59F8041C8901F6D5F0
:1022A000D9F8001021F003010843C9F80000FFF736
:1022B000C1FE064641F28837D9F80000616800F097
:1022C0000C00B0EB810F97D0FFF7B4FE801BB84233
:1022D000F2D9032001B0BDE8F08300BF59F8041C17
:1022E0008907D4D5DCE700BFD9F8002043F2FC739E
:1022F000C2F34042C0F600039A5C4843B0FBF2F0E0
:10230000D9F8001043F2E472C1F30311C0F60002E1
:10231000515C40F2140220FA01F140F20400C2F2D2
:1023200000000068C2F200021160FFF7ABFE00205F
:1023300001B0BDE8F083000040F2140041F2040156
:10234000C2F20000C4F202010068096843F2F472AC
:10235000C1F30221C0F60002515CC8407047000082
:1023600040F2140041F20401C2F20000C4F2020182
:102370000068096843F2F472C1F3C221C0F600029A
:10238000515CC840704700002DE9F04182B0002840
:1023900068D00446007841F20006C007C4F2020685
:1023A00025D0706800F00C0004281BD0706800F085
:1023B0000C00082802D17068C00313D4606800289C
:1023C00000F06881B0F5A02F00F07C81B0F5803F6F
:1023D00000F07C81306820F480303060306820F478
:1023E000802076E13068800301D56068D0B3207822
:1023F000800718D5706810F00C0F07D0706800F0D7
:102400000C0008286ED17068C0036BD43068800758
:1024100002D52069012825D13068616920F0F800D3
:1024200040EAC1003060207800071FD420784007C0
:1024300032D4E56995B1706800F00C00082840F0CE
:102440008F80012D0ED07068216A00F480328A429C
:1024500008D1616A00F47010884203D1002002B0F4
:10246000BDE8F081012002B0BDE8F081A06900283C
:1024700062D00020C4F242200121C0F88014FFF78E
:10248000D9FD0546706A800700F18C80FFF7D2FD08
:10249000401B0228F6D92AE1F06910F0805808D1D3
:1024A000F06940F08050F061F06900F080500090D9
:1024B000009847F20007C4F200073868C00529D425
:1024C000386840F480703860FFF7B4FD054600BFFF
:1024D0003868C0051ED4FFF7ADFD401B6428F7D94E
:1024E00005E100BF2069002840F20000C4F242204C
:1024F00000F0828001210160FFF79CFD054600BFCE
:10250000306880073FF588AFFFF794FD401B022835
:10251000F6D9ECE0E068002800F08080052800F0A3
:102520009780012800F09880306A20F00100306226
:10253000306A20F0040092E00020C4F24220002122
:10254000C0F88014FFF776FD054600BF706A80076B
:102550007FF56CAFFFF76EFD401B0228F6D9C6E091
:102560000027C4F2422700203866FFF763FD022DE2
:1025700005460BD13068800140F1BE80FFF75AFD5F
:10258000401B02284FF00300F4D968E7306880014F
:102590007FF564AFFFF74EFD401B02284FF00300AC
:1025A000F4D95CE740F21400C2F20000006844F67F
:1025B000D351C1F26201A0FB0101480A019000BFA2
:1025C00000BF0198411E002801913FF42FAF00BFCA
:1025D0000198411E002801913FF428AF00BF0198E7
:1025E000411E002801913FF421AF00BF0198411E18
:1025F00000280191E4D119E700210160FFF71AFDDD
:10260000054600BF306880077FF50DAFFFF712FD6C
:10261000401B02284FF00300F4D920E7306A20F075
:1026200001003062306A20F004003062FFF702FDE2
:10263000054641F2883700BF306A800720D5FFF792
:10264000F9FC401BB8424FF00300F5D907E700BF83
:10265000306A40F004003062306A40F001003062BD
:10266000FFF7E8FC054641F2883700BF306A800773
:1026700006D4FFF7DFFC401BB842F7D937E000BFB4
:10268000B8F1000F7FF4D5AEF06920F08050F06112
:10269000CFE600BF306820F480303060306820F42E
:1026A00080203060FFF7C6FC054600BF306880031D
:1026B0007FF59DAEFFF7BEFC401B64284FF0030082
:1026C000F4D9CCE6306840F480203060306840F4C3
:1026D00080303060FFF7AEFC054600BF30688003F5
:1026E0003FF585AEFFF7A6FC401B6428F6D9032012
:1026F00002B0BDE8F08100BF206AB0F5803F05D18F
:102700007168A26821F40031114371607168626AD6
:1027100021F4741111430843706001203866FFF7FB
:1027200089FC0446306880013FF598AEFFF782FCD3
:10273000001B02284FF00300F4D990E6411E002050
:10274000B0EB116F1CBF012070474EF21002CEF2A9
:10275000000251604EF62351CEF20001F0230B70BF
:102760000721906011607047002804BF0120704766
:1027700010B5044690F8410028B9002084F84000C4
:10278000204600F063F8242084F841002068D4E952
:102790000212C36823F40053C360036923F4405357
:1027A0001A430261D4E904231143C268194341F278
:1027B0000C639A431143C1604169A26921F44071DD
:1027C000114343F60002C4F201029042416103D07A
:1027D000FFF7B2FD02E000BFFFF7C2FD62681921FA
:1027E00048439100B0FBF1F048F21F51C5F2EB11E4
:1027F000A0FB01235A094FF69C73C0F6FF7302FB3E
:102800000300322303EB0010A0FB0101F02303EAD5
:102810005113206803EB0212C1F34311114481608C
:10282000016921F490410161416921F02A0141616E
:10283000C16841F40051C16000202021606484F827
:10284000411084F84210606310BD000070B586B07E
:10285000006844F60001C4F2000188424FF0000114
:10286000CDE90411CDE9021124D044F20041C4F2B3
:102870000001884250D141F21800C4F202004168C0
:1028800040F6000441F4003141604168082601F43B
:102890000031019101990168C4F2010441F0040181
:1028A0000160006800F0040001900198042002908B
:1028B00021E000BF41F21800C4F2020041684FF469
:1028C000006641F480214160416801F4802101915A
:1028D0000199016841F008010160006800F00800FA
:1028E000019001984FF48060029040F60000C4F21D
:1028F000010000F5806402200390032002AD0590E2
:1029000020462946FFF788FA0020CDE9030020463B
:1029100029460296FFF780FA06B070BD2DE9F04314
:1029200081B0044690F84200202827D1884600292B
:102930004FF0010000F0C7801746002A00F0C38066
:10294000002022211D46606484F842102063FFF7B6
:1029500071FBA785E785A1680746B1F5805F03D1C4
:102960002069002800F0A68046464FF00008E08D60
:10297000002800F0A48005F1010910E0022001B058
:10298000BDE8F083406800266FF35F2028F8020B53
:10299000E08D0138E085E08D002800F0908020680F
:1029A000016889060ED4B9F1000F19D055B300BFE4
:1029B000FFF740FBC01BA84224D8206801688906A5
:1029C000F6D500BF002EDDD0A168B1F5805F15D02F
:1029D00009B9216991B1406800F07F000FE000BFA4
:1029E00001688906EED4016889065CBF01685FEA68
:1029F0008161E7D401688906F2D5E3E7406806F80B
:102A0000010BC5E7206850E8030F216820F4D0705F
:102A100041E80302E2B1206850E8030F216820F486
:102A2000D07041E803029AB1206850E8030F216892
:102A300020F4D07041E8030252B1206850E8030F3F
:102A4000216820F4D07041E80302002ADAD100BFE7
:102A5000206850E8050F216820F0010041E80502D8
:102A6000DAB1206850E8050F216820F0010041E844
:102A7000050292B1206850E8050F216820F001009E
:102A800041E805024AB1206850E8050F216820F0AE
:102A9000010041E80502002ADAD1202084F8410033
:102AA00084F84200002084F84000032001B0BDE813
:102AB000F08300BF0026E08D00287FF45CAF20206B
:102AC00084F84200002001B0BDE8F0832DE9F04316
:102AD00081B0044690F84100202840F0B18088463B
:102AE00000294FF0010000F0D6801646002A00F0C1
:102AF000D2800020606421201D4684F84100FFF749
:102B000099FAA684E684A1680646B1F5805F03D1F0
:102B10002069002800F0988047464FF00008E18CBB
:102B20002068002900F0968005F101090BE000BF44
:102B300047B317F8011B4160E18C0139E184E18C56
:102B4000002900F0878001680906F1D4B9F1000F6F
:102B50000AD0EDB1FFF76EFA801BA84218D82068A2
:102B600001680906F6D5E3E701680906E0D40168C3
:102B700009065CBF01685FEA0161D9D401680906F2
:102B8000F2D5D5E738F8021B00276FF35F21D2E7B3
:102B9000206850E8030F216820F4D07041E8030258
:102BA000BAB3206850E8030F216820F4D07041E8E0
:102BB000030272B3206850E8030F216820F4D0703C
:102BC00041E803022AB3206850E8030F216820F48B
:102BD000D07041E80302002ADAD11AE0206850E8F8
:102BE000050F216820F0010041E80502DAB12068F4
:102BF00050E8050F216820F0010041E8050292B17C
:102C0000206850E8050F216820F0010041E8050226
:102C10004AB1206850E8050F216820F0010041E822
:102C20000502002ADAD1202084F8410084F842000D
:102C3000002084F84000032001B0BDE8F08300BF0D
:102C4000022001B0BDE8F0830027E18C2068002954
:102C50007FF46AAF0168490619D4FDB1691C0DD132
:102C60000168490613D4016849065CBF01685FEA40
:102C700041610CD401684906F2D508E0FFF7DAF9A2
:102C8000801BA8420AD8206800684006F6D520209C
:102C900084F84100002001B0BDE8F083206850E8CE
:102CA000030F216820F4D07041E80302002A3ED0CF
:102CB000206850E8030F216820F4D07041E8030237
:102CC000AAB3206850E8030F216820F4D07041E8CF
:102CD000030262B3206850E8030F216820F4D0702B
:102CE00041E80302002AD9D121E000BF206850E862
:102CF000050F216820F0010041E80502002A3FF499
:102D000092AF206850E8050F216820F0010041E8EB
:102D10000502002A3FF487AF206850E8050F2168BC
:102D200020F0010041E80502002A3FF47CAF206852
:102D300050E8050F216820F0010041E80502002A53
:102D4000D4D170E7FEE7000080B540F2401043F2B6
:102D50000001C2F20000C4F202010160FEF77CFF34
:102D6000002808BF80BDBDE88040FEF7BFBE000060
:102D700083B041F21800C4F20200016841F0200162
:102D80000160016801F0200102910299016841F09F
:102D900004010160016801F00401019101990168D9
:102DA00041F008010160006800F008000090009800
:102DB00003B0704780B540F2481044F20041C2F2BF
:102DC0000000C4F2000100234FF00C0C4FF4E1327C
:102DD00080E80E00C0E90333C0E905C3C361FFF713
:102DE000C3FC002808BF80BDBDE88040FEF77EBE62
:102DF00080B540F2901044F60001C2F20000C4F227
:102E0000000100234FF00C0C4FF4E13280E80E007B
:102E1000C0E90333C0E905C3C361FFF7A5FC00287F
:102E200008BF80BDBDE88040FEF760BEFEE7000041
:102E3000FEE700007047000070470000FFF700B990
:102E400070470000FEE7000090B0FFF707F900248C
:102E50000120CDE90B44CDE9094406900A904FF4D6
:102E6000E0104FF4803102250F9006A8CDE9071439
:102E7000CDE90D51FFF788FA20B1EFF3108072B65B
:102E8000FEE700BF0F20CDE901054FF48060CDE9DA
:102E9000040401A802210394FFF76EF920B1EFF3B7
:102EA000108072B6FEE700BFFFF762FFFFF74CFF2E
:102EB000FFF780FFFFF79CFFFEF79EFAFCE75FEA53
:102EC000400C08BF91F0000F4FEA8C234FEAC1225B
:102ED00043EA51514FEA1C5018BF00F5F0404FEA49
:102EE000300018BF41F000415FEA6C5C00F02980BF
:102EF000BCF1FF3F08BF40F080407047130C06BF95
:102F000012044FF0100C4FF0000C130E04BF12020D
:102F10000CF1080C130F04BF12010CF1040C930FF9
:102F200004BF92000CF1020CD30F04BF52000CF14D
:102F3000010C11464FF00002A0F11F00A0EB0C00A5
:102F4000704711F0004F08BF704731F000413FF467
:102F5000D5AF0B0C06BF09044FF0100C4FF0000C5E
:102F60000B0E04BF09020CF1080C0B0F04BF090182
:102F70000CF1040C8B0F04BF89000CF1020CCB0F79
:102F800004BF49000CF1010CCCF1200322FA03F339
:102F900041EA030102FA0CF2A0EB0C0000F101007F
:102FA0007047000023F07F4720F07F4C80EA030049
:102FB00000F00040ACEB070303F57C5303F1FF0383
:102FC0002DE9804909B44FEA144324EA03484FEA43
:102FD000154B25EA0B4E0FF2042606EB13273E781D
:102FE00003FB0667C7F5000707FB06F64FEAD64660
:102FF00006F102064FEA543707FB066CCCF1005C81
:103000004FEA1C472CEA074C0CFB06F507FB06F4BD
:1030100004EB15464FEA961649085FEA320234BFC0
:1030200000204FF000404FEAD13706FB07FC4FEA83
:103030001C4C0CFB0BF7D21B03FB0CF761EB0701DD
:103040000CFB0EF7B0EB074072EB17420CFB08F7D6
:1030500034BFA2EB0742B2EB074261EB17414FEAE4
:103060000C444FEA910706FB07FC4FEA1C4C0CFB93
:103070000BF7B0EBC74072EB573203FB0CF734BFD2
:10308000A2EBC742B2EBC74261EB57310CFB0EF724
:10309000B0EBC70072EB57720CFB08F734BFA2EB22
:1030A000C702B2EBC70261EB57714FEA816141EA97
:1030B00092114FEA826242EA90124FEA806004EB7A
:1030C000CC04039F4FEAD13706FB07FC4FEA1C4CA8
:1030D0000CFB0BF7D21B03FB0CF761EB07010CFB9E
:1030E0000EF7B0EB074072EB17420CFB08F734BF4A
:1030F000A2EB0742B2EB074261EB17414FEA8C5556
:1031000004EB9C244FEA910706FB07FC4FEA1C4C9A
:103110000CFB0BF7B0EBC74072EB573203FB0CF71D
:1031200034BFA2EBC742B2EBC74261EB57310CFB95
:103130000EF7B0EBC70072EB57720CFB08F734BF09
:10314000A2EBC702B2EBC70261EB57714FEA816194
:1031500041EA92114FEA826242EA90124FEA80609D
:1031600015EB4C2544F100044FEAD13706FB07FC70
:103170004FEA1C4C0CFB0BF7D21B03FB0CF761EB6B
:1031800007010CFB0EF7B0EB074072EB17420CFB8C
:1031900008F734BFA2EB0742B2EB074261EB1741DD
:1031A0004FEA813141EA92414FEA823242EA90424B
:1031B0004FEA80304FEA0C7615EB1C1544F1000401
:1031C00048EA03434EEA0B484FF0000EB2EB080CFE
:1031D00071EB030724BF624639464EEB0E0E4FF0EB
:1031E000000B0018524149414BEB0B0BB2EB080CA2
:1031F00071EB03077BF1000B24BF624639464EEBAF
:103200000E0E4FF0000B0018524149414BEB0B0BD7
:10321000B2EB080C71EB03077BF1000B24BF624695
:1032200039464EEB0E0E51EA020718BF46F0010672
:1032300016EB0E7655F1000254F1000103D5BDE8FE
:103240008901BDE80088BDE88901BDE80048B619DC
:10325000524141EB0101A3F10103704780807F7E61
:103260007D7C7B7A797877767675747372717170FC
:103270006F6E6E6D6C6C6B6A6A69686867666665AE
:103280006464636362616160605F5F5E5E5D5D5C3C
:103290005C5B5B5A5A5959585857575656555555AD
:1032A0005454535352525251515050504F4F4F4E0D
:1032B0004E4D4D4D4C4C4C4B4B4B4A4A4A4949495B
:1032C000484848474747474646464545454444449D
:1032D0004443434343424242424141419C46002BC6
:1032E00030D477002BD04FEA37071CB503B44FF02A
:1032F00010004FF01001BAF1000F06D0BCF1000F22
:10330000DCBF40F0080040F008014FF000000FBCA7
:10331000BDE810400BF1010BBBF1010F08BF5FEAE4
:10332000170722BF12F1010211F101014FF0004114
:1033300043F1000300F0004043EA00007047F9D376
:103340005708D0E746EA06464FEA164613F1400F03
:103350001FDD13F1200FDFBF16430A460021203383
:103360005B42BED0C3F1200746EA06464FEA164646
:1033700002FA07F746EA070622FA03F2C3F120072A
:1033800001FA07F742EA070221FA03F14FF00003BE
:10339000A7E746EA020646EA06464FEA164646EA26
:1033A0000106BCBF46EA0646360C4FF000034FF05C
:1033B00000024FF0000194E72DE9804C70B49A466A
:1033C000934691E8380007C831EA400C48BF34EA18
:1033D000430C03D5FFF7E6FDFFF780FFF0BCBDE827
:1033E000008C2DE9804C70B49A46934691E83800E1
:1033F00007C810F0804F08BF13F0804F03D100F0D2
:1034000005F8FFF76BFFF0BCBDE8008C20F07F47AC
:1034100023F07F4C80EA030000F0004007EB0C0330
:10342000A3F57C53A3F1FE0392F0000F00F0B380EC
:1034300095F0000F00F077802DE901494FEA114027
:1034400021EA00484FEA144624EA064700FB06FC3E
:1034500008FB06F607FB08F818EB06484CEB164C81
:1034600000FB07F718EB07484CEB17404FEA124BED
:1034700022EA0B4E4FEA154625EA06470BFB06FCEF
:103480000EFB06F607FB0EFE1EEB064E4CEB164C33
:103490000BFB07F71EEB074E4CEB174B18EB0B081B
:1034A00040F1000018EB0E0B58EB000840F1000053
:1034B0008F1A4FF000014FF000063CBFC943661B56
:1034C00014BFB5EB040C00213CBFC943F61B4FEA07
:1034D000174427EA04454FEA1C472CEA074C04FB33
:1034E000076205FB07F70CFB05F616EB074642EBF8
:1034F000174204FB0CFC16EB0C4642EB1C421BEB88
:10350000060658EB020241414EEA8E0E46EA9E063E
:1035100001D5BDE80189B619524141EB0101A3F182
:103520000103BDE801894FEA144524EA05464FEA44
:10353000114721EA074C05FB07F406FB07F70CFBD4
:1035400006F111EB074144EB174405FB0CFC11EBB2
:103550000C4144EB1C444FEA124722EA074C05FB9E
:1035600007F206FB07F70CFB06F616EB074642EBE5
:10357000174205FB0CFC16EB0C4642EB1C456A1887
:1035800054F1000148BF7047B619524141EB0101A7
:10359000A3F10103704795F0000F37D04FEA1142B5
:1035A00021EA02464FEA144724EA074C02FB07F1DE
:1035B00006FB07F70CFB06F414EB074441EB17413D
:1035C00002FB0CFC14EB0C4441EB1C414FEA154789
:1035D00025EA074C02FB07F506FB07F70CFB06F68E
:1035E00016EB074645EB174502FB0CFC16EB0C46A9
:1035F00045EB1C42121951F1000148BF7047B61942
:10360000524141EB0101A3F1010370474FEA144518
:1036100024EA05464FEA114721EA074C05FB07F16A
:1036200006FB07F70CFB06F212EB074241EB1741D2
:1036300005FB0CFC12EB0C4251EB1C414FF0000659
:1036400048BF7047921841EB0101A3F10103704795
:10365000490050EAC12018BF04204A0D18BF40F0AD
:10366000010040F2FF72B2EB515F08BF40F0020070
:10367000012808BF0520704730380A2801D20120F0
:10368000704700207047000010B500290AD0087864
:10369000002807D005487844FDF746FE002801D0F1
:1036A000002010BD0248784410BD00004A0400000C
:1036B0004204000010B500290AD00878002807D07D
:1036C00005487844FDF730FE002801D0002010BDE9
:1036D0000248784410BD00003A04000032040000A3
:1036E000FDF72CBAFDF760BB0000000000000000F1
:1036F0003031323334353637383941424344454628
:103700004030580030313233343536373839616221
:103710006364656640307800040000080000000023
:103720000000000200010000103031323334353621
:1037300037383961626364656678700030313233DE
:1037400034353637383941424344454658500000F5
:1037500002400000000000A0000000000540000042
:10376000000000C8000000000C4000000000409C69
:1037700000000000194000000020BCBE0000000056
:1037800034400000BFC91B8E00000004B54000009B
:10379000504BCFD06607E2CF010000006C41000023
:1037A0003E8251AADFEEA73401000000D94200009A
:1037B000DCB5A0E23A301F97FFFFFFFFB4450000E1
:1037C000FD25A0C8E9A3C14FFFFFFFFFFF3F000099
:1037D0000000008000000000FF3F000000000080AB
:1037E00000000000000000000000000001020304CF
:1037F0000607080900000000010203040102020399
:103800000405060708090A0B0C0D0E0F1010466C74
:1038100061736820536563746F72204572617365CC
:10382000207375636365737366756C20200D0A00E1
:10383000466C61736820536563746F7220457261D2
:10384000736520696E7375636365737366756C2049
:10385000200D0A00466C61736820536563746F72B3
:1038600020457261736520756E737563636573734C
:1038700066756C20200D0A004164647265737320C4
:10388000566572696669636174696F6E2069732039
:103890006E6F742076616C69642E200D0A004342BD
:1038A0004C5F4745545F4349445F434D44200D0AF4
:1038B000004765742074686520626F6F74206C6FB8
:1038C000616465722076657273696F6E2066726FCF
:1038D0006D20454355200D0A004A756D7020746FA8
:1038E000203A202558200D0A0041646472657373E4
:1038F00020766572696669636174696F6E2073759D
:1039000063636565646564200D0A00435243205675
:103910006572696669636174696F6E204661696C7E
:103920006564200D0A00435243205665726966693A
:10393000636174696F6E20506173736564200D0A52
:103940000043524320566572697669636174696FFA
:103950006E20506173736564200D0A00435243204A
:10396000566572697669636174696F6E2046616934
:103970006C64200D0A00466C6173682053656374A3
:103980006F72204572617365204D6F6465200D0A6A
:10399000005375636365737366756C20457261735C
:1039A00065200D0A004D6173732065726173652097
:1039B0006F7220736563746F722065726173652026
:1039C0006F6620746865207573657220666C61731C
:1039D00068200D0A00526561642074686520466C99
:1039E00061736820526561640950726F7465637415
:1039F000696F6E206F7574206C6576656C200D0A9A
:103A000000466C617368204D617373204572617369
:103A1000652041637469766174696F6E200D0A00D8
:103A20005265616420746865204D43552063686960
:103A300070206964656E74696669636174696F6E2C
:103A4000206E756D626572200D0A005265616420FA
:103A500074686520636F6D6D616E6473207375703B
:103A6000706F7274656420627920626F6F746C6F1E
:103A700061646572200D0A0045726173652072658C
:103A80007175657374206661696C65642021210D10
:103A90000A00496E76616C696420436F6D6D616EDA
:103AA0006420636F64652072656365697665642070
:103AB00066726F6D20686F737421210D0A0000001B
:103AC000103C000800000020180000002801000839
:103AD000283C000818000020E80700004401000806
:103AE0001C00000043000000F8FFFFFF0C00000076
:103AF0000E0000000F0000002E000000100100006A
:103B000043000000F8FFFFFF0040404040404040BD
:103B100040404141414141404040404040404040A0
:103B20004040404040404040400502020202020244
:103B30000202020202020202022020202020202093
:103B400020202002020202020202909090909090A7
:103B50001010101010101010101010101010101065
:103B600010101010020202020202888888888888D9
:103B700008080808080808080808080808080808C5
:103B800008080808020202024000000000000000CD
:103B90000000000000000000000000000000000025
:103BA0000000000000000000000000000000000015
:103BB0000000000000000000000000000000000005
:103BC00000000000000000000000000000000000F5
:103BD00000000000000000000000000000000000E5
:103BE00000000000000000000000000000000000D5
:103BF00000000000000000000000000000000000C5
:103C000000000000000000000000000000000000B4
:103C100001000000100000001011121314151617F7
:083C2000181920210024F40012
:04000005080000ED02
:00000001FF
